:1000000012C02CC02BC02AC029C028C027C026C0BF
:1000100025C03EC123C022C021C020C0B9C11EC01E
:100020001DC01CC01BC011241FBECFE5D4E0DEBF25
:10003000CDBF10E0A0E6B0E0E8E7F6E002C0059032
:100040000D92AE3FB107D9F711E0AEEFB0E001C0BD
:100050001D92A833B107E1F725D20CC3D1CF10BC54
:1000600089B980E4489FA0011124A0E86A9FB001EB
:1000700011246861642B6AB98EE880BD89E2EEE0E4
:10008000F1E0DF011D928A95E9F708955F9BFECFAD
:100090008CB108955D9BFECF8CB95E9BFECF089519
:1000A00080E2F8CF8AE0F6DF8DE0F4CF1F93CF93A4
:1000B000DF93EC0110E002C0EDDF1F5FFE01E10FF6
:1000C000F11D80818111F8CFDF91CF911F910895AB
:1000D000CF93DF93CDB7DEB7A1970FB6F894DEBF0D
:1000E0000FBECDBF462F50E0BE016F5F7F4F7FD266
:1000F000CE010196DBDFA1960FB6F894DEBF0FBEEE
:10010000CDBFDF91CF910895D1DFCCCFDF92EF92B9
:10011000FF920F931F93CF93DF938C01D42EF12C7A
:10012000C62FD0E0219713C0B1DFE82E8DE0E81292
:1001300005C0F801EF0DF11D10820FC0DD2011F098
:100140008E2DA8DFF801EF0DF11DE082F3948F2DC5
:1001500090E08C179D0744F3ECCFDF91CF911F9176
:100160000F91FF90EF90DF900895CF93DF93982F3A
:100170008CB120913601223050F591118CB98D301F
:1001800019F49091360120C0982F90529B35F8F4C5
:100190009091360124E1929FE0011124DE01A25FDB
:1001A000BE4FFD0101900020E9F73197EA1BFB0BE0
:1001B000E23150F4FF27CE0FDF1FC25FDE4F88838E
:1001C000EA0FFB1F118203C09F5F90933601DF91FE
:1001D000CF91089580913601811103C020E030E075
:1001E00002C02EE031E0C9010895CF93DF938091E2
:1001F0003601882369F1C0E0D4E114C0C901019639
:10020000D89FB001D99F700D1124625F7E4FD29F9D
:10021000C001D39F900D112444E150E0825F9E4FB6
:10022000D7D1CF5F2C2F30E040913601842F90E062
:1002300001972817390714F384E1829FF001839F07
:10024000F00D1124E25FFE4F1082415040933601C1
:10025000DF91CF91089581E690E056DF979AC0989C
:100260008FEF90E09BBD8ABD81E080930A010895E5
:100270008CE790E049DF9798C09A8FEF90E09BBDA4
:100280008ABD81E080930A01089510920A010895C1
:100290001F920F920FB60F9211242F933F934F93FB
:1002A0005F936F937F938F939F93AF93BF93EF93DE
:1002B000FF93809160008F5F873C08F401C084E663
:1002C000809360006AE08091600090E001DF86E941
:1002D00090E0ECDE8AB59BB56AE0FADE8CE990E04E
:1002E000E5DE84B195B16AE0F3DE80E990E0DEDE20
:1002F00083B3887390E062E023E0969587952A9512
:10030000E1F7E6DE82EA90E0D1DE809108016AE062
:1003100090E0DEDE84E990E0C9DE809109016AE0C8
:1003200090E0D6DE8EEA90E0C1DE809104016AE0C2
:1003300090E0CEDE84E990E0B9DE809102016AE0CF
:1003400090E0C6DE83EB90E0B1DE809101016AE0CF
:1003500090E0BEDE84E990E0A9DE809100016AE0D1
:1003600090E0B6DE80E990E0A1DE8DE093DEFF91C3
:10037000EF91BF91AF919F918F917F916F915F911D
:100380004F913F912F910F900FBE0F901F90189596
:100390001F920F920FB60F9211242F933F938F93BA
:1003A0009F93AF93BF93EF93FF9384B195B18D3B30
:1003B000924050F080910B0190910C010196909326
:1003C0000C0180930B0104C010920C0110920B01E0
:1003D00080910B0190910C018F3F910539F030F025
:1003E00010920A0110920C0110920B0180910A01E7
:1003F0008823C1F084B195B18032934048F48AB526
:100400009BB58F3F910580F48AB59BB5019607C0D7
:100410008AB59BB5892B41F08AB59BB501979BBDE9
:100420008ABD02C01BBC1ABC83B3887390E033E062
:10043000959587953A95E1F7382F1092370120E08E
:10044000FC01EE5FFE4F91E01CC0321314C08081AE
:100450008F3F21F080818F5F808312C080910001E7
:10046000831771F0809100018093010130930001A6
:100470009093FF0005C0A22FB0E0AE5FBE4F1C926C
:100480002F5F283010F320933701FF91EF91BF9138
:10049000AF919F918F913F912F910F900FBE0F9031
:1004A0001F90189540E060E08CE0D9DDB99A1BBC44
:1004B0001ABC81EA8FBD89E08EBD83B7856083BF9A
:1004C00089B7816089BF87E886B981E087B9359AA5
:1004D000369A339AB89A8F9AA398A498A598789444
:1004E0008CEB90E011DE84EE90E00EDE8091FF0058
:1004F0008823E1F38FEE90E007DE1092FF008091F9
:100500000101823021F4809100018630C1F0809198
:100510000101823021F480910001882381F08091D3
:100520000101873021F480910001863041F08091F3
:100530000101873039F480910001811103C01092CC
:100540000A01D4CF80910101863021F4809100010D
:100550008823C1F080910101863021F4809100014F
:10056000823081F080910101811104C080910001ED
:10057000823041F080910101873031F48091000197
:10058000823011F468DEB2CF80910101863021F40F
:10059000809100018730D1F080910101811104C068
:1005A00080910001863091F080910101811104C099
:1005B00080910001873051F080910101823009F073
:1005C00095CF80910001873009F090CF51DE8ECF1A
:1005D000FB01DC014150504048F001900D92002099
:1005E000C9F701C01D9241505040E0F70895FB014A
:1005F0009F01E8944230BCF04532ACF44A3029F413
:1006000097FB1EF4909581959F4F642F77271ED0FE
:10061000805D8A330CF0895D8193CB010097A9F747
:1006200016F45DE251931082C90100C0DC01FC01A7
:10063000672F71917723E1F7329704C07C916D9316
:1006400070836291AE17BF07C8F30895AA1BBB1B46
:1006500051E107C0AA1FBB1FA617B70710F0A61BC2
:10066000B70B881F991F5A95A9F780959095BC01E3
:08067000CD010895F894FFCFBD
:100678006450756C6C696E6720696E2028646F77AA
:100688006E29203E3E3E20202020200050756C6CB4
:10069800696E67206F75742028757029203C3C3C72
:1006A8002020202020002050574D3A00204144436C
:1006B8003A00202020206D6F6465733A2000202DB9
:1006C8002020002020202070713A20004175746F8E
:1006D8006D617469632043617220416E74656E6E4A
:1006E80061206279203C6461726975734061742E7F
:1006F8006C743E00424F4F544544205550210067CA
:0E0708006F74207472616E736974696F6E0095
:00000001FF
