:1000000012C02CC02BC02AC029C028C027C026C0BF
:1000100025C024C023C022C021C020C09AC11EC058
:100020001DC01CC01BC011241FBECFE5D4E0DEBF25
:10003000CDBF11E0A0E6B0E0ECE3F6E002C0059031
:100040000D92AE33B107D9F711E0AEE3B1E001C0D4
:100050001D92A537B107E1F728D2EEC2D1CF10BC6F
:1000600089B980E4489FA0011124A0E86A9FB001EB
:1000700011246861642B6AB98EE880BD89E2ECE4E2
:10008000F1E0DF011D928A95E9F708955F9BFECFAD
:100090008CB108955D9BFECF8CB95E9BFECF089519
:1000A00080E2F8CF8AE0F6DF8DE0F4CF1F93CF93A4
:1000B000DF93EC0110E002C0EDDF1F5FFE01E10FF6
:1000C000F11D80818111F8CFDF91CF911F910895AB
:1000D000CF93DF93CDB7DEB7A1970FB6F894DEBF0D
:1000E0000FBECDBF462F50E0BE016F5F7F4F61D284
:1000F000CE010196DBDFA1960FB6F894DEBF0FBEEE
:10010000CDBFDF91CF910895D1DFCCCFDF92EF92B9
:10011000FF920F931F93CF93DF938C01D42EF12C7A
:10012000C62FD0E0219713C0B1DFE82E8DE0E81292
:1001300005C0F801EF0DF11D10820FC0DD2011F098
:100140008E2DA8DFF801EF0DF11DE082F3948F2DC5
:1001500090E08C179D0744F3ECCFDF91CF911F9176
:100160000F91FF90EF90DF900895CF93DF93982F3A
:100170008CB120917401223050F591118CB98D30E1
:1001800019F49091740120C0982F90529B35F8F487
:100190009091740124E1929FE0011124DE01A45B9F
:1001A000BE4FFD0101900020E9F73197EA1BFB0BE0
:1001B000E23150F4FF27CE0FDF1FC45BDE4F888390
:1001C000EA0FFB1F118203C09F5F90937401DF91C0
:1001D000CF91089580917401811103C020E030E037
:1001E00002C02CE431E0C9010895CF93DF938091E0
:1001F0007401882369F1C0E0D4E114C0C9010196FB
:10020000D89FB001D99F700D1124645B7E4FD29F9F
:10021000C001D39F900D112444E150E0845B9E4FB8
:10022000B9D1CF5F2C2F30E040917401842F90E042
:1002300001972817390714F384E1829FF001839F07
:10024000F00D1124E45BFE4F108241504093740185
:10025000DF91CF91089581E690E056DF979AC0989C
:100260008FEF90E09BBD8ABD81E0809349010895A6
:100270008FE790E049DF9798C09A8FEF90E09BBDA1
:100280008ABD81E08093490108958BE990E03CDFCD
:10029000109249010895809160008F5F873C08F4B7
:1002A00001C084E6809360006AE08091600090E085
:1002B0000FDF87EB90E0FADE8AB59BB56AE008DFD6
:1002C0008DEB90E0F3DE84B195B16AE001DF81EB64
:1002D00090E0ECDE83B3887390E062E023E09695D3
:1002E00087952A95E1F7F4DE83EC90E0DFDE8091DC
:1002F00047016AE090E0ECDE85EB90E0D7DE80918C
:1003000048016AE090E0E4DE8FEC90E0CFDE80917F
:1003100043016AE090E0DCDE85EB90E0C7DE80918F
:1003200041016AE090E0D4DE84ED90E0BFDE809190
:100330003F016AE090E0CCDE8EEE90E0B7DE809187
:1003400040016AE090E0C4DE81EB90E0AFDE8DE03A
:10035000A1CE1F920F920FB60F9211242F933F93AD
:100360004F935F936F937F938F939F93AF93BF93BD
:10037000EF93FF9384B195B18D3B924050F0809103
:100380004A0190914B01019690934B0180934A0151
:1003900004C010924B0110924A0180914A01909141
:1003A0004B018F3F910531F028F06FDF10924B0128
:1003B00010924A01809149018823C1F084B195B11E
:1003C0008032934048F48AB59BB58F3F910580F405
:1003D0008AB59BB5019607C08AB59BB5892B41F0BC
:1003E0008AB59BB501979BBD8ABD02C01BBC1ABCD8
:1003F00023B3287330E043E0359527954A95E1F71C
:10040000422F80E090E0F901EF5BFE4F31E04813AE
:1004100014C020812F3F21F020812F5F208311C045
:1004200020914001241769F02091400120933F0161
:100430004093400130933E0104C0DC01AF5BBE4FEE
:100440001C9201968830910511F7FF91EF91BF91B1
:10045000AF919F918F917F916F915F914F913F915C
:100460002F910F900FBE0F901F90189540E060E005
:1004700083E3F5DDB99A1BBC1ABC81EA8FBD89E024
:100480008EBD81E087B987E886B9359A369A339A66
:10049000B89A8F9AA398A498A5988BEF90E034DE31
:1004A00083E291E031DE78940895E0DF80913E01AF
:1004B000882309F46DC08EE291E026DE10923E01A1
:1004C00080913F01823021F4809140018630C1F05B
:1004D00080913F01823021F480914001882381F096
:1004E00080913F01873021F480914001863041F0B6
:1004F00080913F01873031F480914001811102C029
:10050000C4DED4CF80913F01863021F48091400138
:100510008823C1F080913F01863021F48091400111
:10052000823081F080913F01811104C080914001AF
:10053000823041F080913F01873031F48091400159
:10054000823011F488DEB2CF80913F01863021F4F1
:10055000809140018730D1F080913F01811104C02A
:1005600080914001863091F080913F01811104C05B
:1005700080914001873051F080913F01823009F035
:1005800095CF80914001873009F090CF71DE8ECFFA
:1005900082DE8CCFFB01DC014150504048F00190DD
:1005A0000D920020C9F701C01D9241505040E0F764
:1005B0000895FB019F01E8944230BCF04532ACF451
:1005C0004A3029F497FB1EF4909581959F4F642F34
:1005D00077271ED0805D8A330CF0895D8193CB0133
:1005E0000097A9F716F45DE251931082C90100C08B
:1005F000DC01FC01672F71917723E1F7329704C08A
:100600007C916D9370836291AE17BF07C8F3089514
:10061000AA1BBB1B51E107C0AA1FBB1FA617B70728
:1006200010F0A61BB70B881F991F5A95A9F7809544
:0C0630009095BC01CD010895F894FFCF17
:10063C006450756C6C696E6720616E74656E6E616A
:10064C0020646F776E203C3C3C2020202020005002
:10065C00757368696E6720616E74656E6E61207566
:10066C0070203E3E3E20202020200053746F70707E
:10067C00696E6720746865206D6F746F72202D2D04
:10068C002D2020202020002050574D3A002041449E
:10069C00433A00202020206D6F6465733A200020BF
:1006AC002D20200020202020627574746F6E207322
:1006BC0074617465732C206C6173743A2000202C67
:1006CC002063757272656E743A20004175746F6D9B
:1006DC00617469632043617220416E74656E6E6152
:1006EC00206279203C6461726975734061742E6C70
:1006FC00743E00424F4F54454420555021000A6728
:0E070C006F74207472616E736974696F6E0091
:00000001FF
